:020000040800F2
:10000000B8070020E50100082F240008CB210008D4
:100010002D240008C51200083D270008000000003C
:10002000000000000000000000000000A5240008FF
:10003000C71200080000000051240008EB2400084B
:10004000FF010008FF010008FF010008FF01000890
:10005000FF010008FF010008FF010008FF01000880
:10006000FF010008FF010008FF010008FF01000870
:10007000FF010008FF010008FF010008FF01000860
:10008000FF010008FF010008FF010008FF01000850
:10009000FF010008FF010008FF010008FF01000840
:1000A000FF010008FF010008FF010008FF01000830
:1000B000FF01000839250008FF010008FF010008C2
:1000C000FF010008FF010008FF010008FF01000810
:1000D000FF01000811270008FF010008FF010008C8
:1000E000FF010008FF010008FF010008FF010008F0
:1000F000FF010008FF010008FF010008FF010008E0
:10010000FF010008FF010008FF010008FF010008CF
:10011000FF010008FF010008FF010008FF010008BF
:10012000FF010008FF010008FF010008FF010008AF
:1001300000F002F800F047F80AA090E8000C8244B2
:100140008344AAF10107DA4501D100F03CF8AFF28F
:10015000090EBAE80F0013F0010F18BFFB1A43F0A5
:1001600001031847F42D0000142E0000103A24BF9C
:1001700078C878C1FAD8520724BF30C830C144BF0C
:1001800004680C607047000000230024002500264E
:10019000103A28BF78C1FBD8520728BF30C148BFEA
:1001A0000B607047662902F01286002070471FB569
:1001B00000F052FB04000020002102F0C3FBE060CD
:1001C0001FBD10B510BD00F047FC1146FFF7EFFF53
:1001D00002F016FB00F065FC03B4FFF7F2FF03BC6E
:1001E00002F0C8FA0948804709480047FEE7FEE7E1
:1001F000FEE7FEE7FEE7FEE7FEE7FEE7FEE7FEE7D7
:1002000004480549054A064B70470000F1240008E0
:1002100031010008B8010020B8070020B803002011
:10022000B8030020704700000FB41CB5074B06AAA6
:100230007B4469460090059800F0F5FA0020694675
:1002400000F004FB1CBC5DF814FB00001906000064
:100250002DE9F0474FF0000A89460446C0F820A077
:100260002046E1688847002876D0252806D0D4E9C2
:1002700001219047206A401C2062F1E7E168204696
:1002800000258847C4F81CA006460027C4F818A01B
:100290002A2E09D0304602F066FA38B304EB8708FC
:1002A000303EC8F8186019E059F8041B204604EBEA
:1002B00087029161E1688847012F064618D1E069FD
:1002C000002820DA25F020051DE0D8F8180000EB02
:1002D000800006EB40003038C8F818002046E1687E
:1002E0008847064602F03FFA0028EED1012F0AD0D7
:1002F0002E2E08D12046E16888477F1C0646022F33
:1003000045F02005C4DBA069002803DA404245F02F
:100310000105A061E80701D025F01005B6B1A6F1EE
:100320004100192802D8203645F400654A46314676
:10033000204625604D46FFF735FF58B1012806D00D
:10034000ED1D25F0070000F1080989E704E005F13B
:10035000040985E730468AE7206ABDE8F08740EA6D
:100360000103024630B59B0710D14FF0013400E085
:1003700008C208C91D1B9D4315EAC41FF8D013F01D
:10038000FF0102F8011B0DD01B0AF8E711F8013B31
:10039000002B02F8013B05D011F8013B002B02F8BD
:1003A000013BF3D130BD4FF0000200B51346944637
:1003B0009646203922BFA0E80C50A0E80C50B1F1BD
:1003C0002001BFF4F7AF090728BFA0E80C5048BFD1
:1003D0000CC05DF804EB890028BF40F8042B08BF6F
:1003E000704748BF20F8022B11F0804F18BF00F86B
:1003F000012B7047704770477047704770472DE971
:10040000FF4F0C461E464FF0FF378BB0D2E900017C
:10041000DDF860800A908A46C1F30A5505B93D4669
:10042000002108464FF00000BAF1000F00F4400030
:1004300005DA00EB80004FF4400101EA50004FEA7A
:100440009059B9F1010F00DDB9460A9850EA4A0007
:100450000ED044F61050A5F2FF3545432F14B8F1E5
:10046000000F1ED07542291E1EDDC9F100021CE0DE
:10047000B8F1010F4FF0000001D0302103E0F2434A
:1004800005E02154401CB042FBDB30460022002135
:1004900021540B99C1F80880C1E900200FB0BDE8D4
:1004A000F08FBD1B6D1CDEE74A4600DA694206A8E4
:1004B00000F05CFA06AB93E8070003AB83E80700A3
:1004C00050460A9900F036FB8DE80700A0F5005071
:1004D0001F3800900398002D0ADD42F21F014A46A2
:1004E0000844002303A90390684600F09FFD09E03B
:1004F000A0F500504A461F38002303A90390684620
:1005000000F0A9FD8DE807000004000C03D04FF0B7
:10051000FF30410800E01046B8F1000F03D0002280
:10052000009215461EE0751E05D400F099F9303290
:1005300062556D1EF9D5B3460122084302D0002250
:100540007F1C04E02078302801D100227F1E002A81
:10055000099784D01DE0112D07DA00F081F93032BF
:1005600062556D1C50EA0102F5D1084302D0009893
:10057000C8B10EE00021681E05E0235C625C635494
:100580002254401E491C8142F7DBAB46A81B401E8B
:100590000990002004F80B000B98099AC0F8088015
:1005A000C0E9002B7AE711264FF0000857E72DE944
:1005B000F04F88460446D21D22F0070191B0D1E9E0
:1005C0000001CDE90A0102F0BAF802460B98C00F0B
:1005D00001D02D2007E02068810701D52B2002E003
:1005E000202101EAC000032A099001D0072A05DB77
:1005F00003464146204600F079F90BE12078800659
:1006000001D5E06900E00620B8F1650F814606D00B
:10061000B8F1660F18D0B8F1670F70D131E0002043
:10062000B9F1110F009001DB112301E009F1010381
:100630000AAA01A90CA8FFF7E2FEDDE90C7000266A
:1006400009F10105834647E001204B4600904FF039
:1006500000470AAA01A90CA8FFF7D1FEDDE90DB0F9
:100660000C995D46002610B909F101000D18B9EB8F
:10067000050003D4C0F1FF3609F10105A5EB09001F
:100680002BE0B9F1010F01DA4FF001090020B9F1B7
:10069000110F0090484601DD112300E003460AAA2D
:1006A00001A90CA8FFF7ABFEDDE90C704D46002652
:1006B0008346207800070AD4AB4500DA5D4601A8DE
:1006C000012D04DD411911F8011C302907D04F45D7
:1006D00002DA17F1040F04DA012082460FE06D1EE2
:1006E000EEE7002F02DCED1B3E4403E0781CA8423D
:1006F00000DD7D1CB81B00F1010A4FF00047207897
:10070000000703D4AA4501DB4FF0FF3A0021B7F1FF
:10071000004F0DF143088DF8431024D002202B2305
:10072000002F01DA7F422D230A21021EA0F10100D1
:1007300000DC5FB197FBF1FC97FBF1F201FB1C7C45
:1007400017460CF1300C08F801CDEEE7A8F10100D6
:1007500003702188090501D5452100E06521A0F13C
:10076000010800F8011C09980FA9A1EB0807FF1D5B
:1007700000B10120411901EBEA70A1693844081A5F
:10078000401EA0612078C00602D42046AFF300804E
:10079000099828B1D4E901219047206A401C2062C1
:1007A0002078C00622D52046AFF300801EE0002E40
:1007B00004DBB34502DD01A8805D00E03020D4E910
:1007C00001219047206A401C2062761CAAF101009A
:1007D0005FEA000A0AD100F03FF8C0680168405C97
:1007E000D4E901219047206A401C2062281EA5F10F
:1007F0000105DCDC07E0D4E9012118F8010B904782
:10080000206A401C2062381EA7F10107F3DC204655
:10081000AFF30080032011B041E6000001694A1CDB
:1008200002610878704700B58FB0CDE90131002131
:10083000059105497944CDE9031011466846FFF753
:1008400007FD0FB000BD0000E5FFFFFF0A6802F8DA
:10085000010B0A60704700000048704778010020D3
:1008600030B5B0F10A024FEA900E71F100034EEA82
:10087000817EB0EB0E0061EB91014FEA101E4EEA53
:10088000017E10EB0E0041EB11114FEA102E4EEAE3
:10089000016E10EB0E0041EB11214FEA104E4EEAB3
:1008A000014E10EB0E0041EB1141401841F10001E7
:1008B0004FEAD00040EA41704FEAD10110EB8005C9
:1008C0004FEA810444EA907444EB01046D1944EB4F
:1008D0000404521BA3414FF0000348BF0A3200D565
:1008E00030BD401C41F1000130BD00002DE9F04158
:1008F0001F46044603260168072A01F4006004DB52
:1009000008B116A505E016A503E008B115A500E09D
:1009100015A521F010002060A069C01EA0610FB1D4
:10092000401EA0612046AFF300804FB1D4E9012101
:1009300038469047206A401C2062C01C206206E0B6
:10094000206AFAE7D4E9012115F8010B9047761ED9
:10095000F8D22046AFF30080BDE8F0814E414E0052
:100960006E616E00494E4600696E66002DE9F047E3
:10097000814616468AB0354878440DC88DE80D008A
:1009800032487844801C03AC0DC884E80D0041F661
:100990009B300844372190FBF1F290FBF1F5A5F173
:1009A000800501FB12041B3C02D56442012000E0DB
:1009B0000020DFF898A080460027FA44AAF1BE0A7A
:1009C0000EE0E0070AD03246684607EB47010123F4
:1009D0000AEB810100F03FFB8DE8070064107F1CEB
:1009E000002CEED1194F7F44AE3F19E0E80715D037
:1009F00007EB04100DF1180A90E80E008AE80E00CB
:100A0000C068F04201D1981908903246012306A926
:100A100003A800F020FB03AB83E807006D10641C03
:100A2000002DE3D14FF0010332466946B8F1000FC3
:100A300003A802D000F0FAFA01E000F00CFBC9E9CB
:100A40000001C9F808200AB0BDE8F087C4250000FD
:100A500000487047580100207546FFF7F9FFAE4681
:100A600005006946534620F00700854618B020B5BA
:100A7000FFF7C6FBBDE820404FF000064FF000072F
:100A80004FF000084FF0000B21F00701AC46ACE836
:100A9000C009ACE8C009ACE8C009ACE8C0098D46A3
:100AA000704710B50446AFF300802046BDE8104003
:100AB000FFF792BB4FF0013C50F8042B51F8043B78
:100AC0009A4221D1A2EB0C03934313EACC1317D122
:100AD00050F8042B51F8043B9A4215D1A2EB0C03B9
:100AE000934313EACC130BD150F8042B51F8043B79
:100AF0009A4209D1A2EB0C03934313EACC13DBD047
:100B00004FF00000704700BFD01A01BAB1FA81F16E
:100B100001F0180122FA01F0CB40C1F12001DBB253
:100B2000C0B2C01A2CFA01F3D11A914311EAC311D1
:100B3000E6D170475FEA400C08BF91F0000F4FEA22
:100B40008C234FEAC12243EA51514FEA1C5018BF8F
:100B500000F5F0404FEA300018BF41F000415FEA75
:100B60006C5C00F02980BCF1FF3F08BF40F0804082
:100B70007047130C06BF12044FF0100C4FF0000C1E
:100B8000130E04BF12020CF1080C130F04BF120164
:100B90000CF1040C930F04BF92000CF1020CD30F64
:100BA00004BF52000CF1010C11464FF00002A0F1FD
:100BB0001F00A0EB0C00704711F0004F08BF7047FA
:100BC00031F000413FF4D5AF0B0C06BF09044FF0E4
:100BD000100C4FF0000C0B0E04BF09020CF1080CB6
:100BE0000B0F04BF09010CF1040C8B0F04BF89002B
:100BF0000CF1020CCB0F04BF49000CF1010CCCF13D
:100C00002003A0EB0C0022FA03F302FA0CF241EAF3
:100C1000030100F10100704720F07F4C80EA0300DF
:100C200023F07F47ACEB070303F57C5300F0004053
:100C300003F1FF032DE980494FEA154B09B44FEA50
:100C4000144325EA0B4E24EA03480FF2042606EB70
:100C5000132749083E785FEA320203FB0667C7F5AF
:100C6000000707FB06F64FEA54374FEAD64606F16F
:100C7000020607FB066CCCF1005C4FEA1C472CEA2D
:100C8000074C07FB06F40CFB06F504EB15464FEA90
:100C9000961634BF00204FF000404FEAD13706FBD4
:100CA00007FC4FEA1C4C0CFB0BF7D21B03FB0CF7A9
:100CB00061EB07010CFB0EF7B0EB074072EB17423C
:100CC0000CFB08F734BFA2EB0742B2EB074261EB23
:100CD00017414FEA0C444FEA910706FB07FC4FEA25
:100CE0001C4C0CFB0BF7B0EBC74072EB573203FB0D
:100CF0000CF734BFA2EBC742B2EBC74261EB5731EE
:100D00000CFB0EF7B0EBC70072EB57720CFB08F749
:100D100034BFA2EBC702B2EBC70261EB5771039F6E
:100D20004FEA816141EA921104EBCC044FEAD137DA
:100D30004FEA826206FB07FC42EA90124FEA8060AB
:100D40004FEA1C4C0CFB0BF7D21B03FB0CF761EBBF
:100D500007010CFB0EF7B0EB074072EB17420CFBE0
:100D600008F734BFA2EB0742B2EB074261EB174131
:100D70004FEA8C554FEA910704EB9C2406FB07FCD5
:100D80004FEA1C4C0CFB0BF7B0EBC74072EB573231
:100D900003FB0CF734BFA2EBC742B2EBC74261EBD7
:100DA00057310CFB0EF7B0EBC70072EB57720CFB20
:100DB00008F734BFA2EBC702B2EBC70261EB577171
:100DC00015EB4C254FEA816141EA92114FEA8262AC
:100DD0004FEAD13742EA901206FB07FC44F10004C7
:100DE0004FEA80604FEA1C4C0CFB0BF7D21B03FB55
:100DF0000CF761EB07010CFB0EF7B0EB074072EB51
:100E000017420CFB08F734BFA2EB0742B2EB0742D4
:100E100061EB174115EB1C154FEA813141EA924114
:100E20004FEA823242EA90424FEA80304FEA0C7633
:100E300044F1000448EA03434EEA0B484FF0000E29
:100E4000B2EB080C71EB030724BF624639464EEB48
:100E50000E0E4FF0000B0018524149414BEB0B0BAB
:100E6000B2EB080C71EB03077BF1000B24BF624669
:100E700039464EEB0E0E4FF0000B0018524149411F
:100E80004BEB0B0BB2EB080C71EB03077BF1000B88
:100E900024BF624639464EEB0E0E51EA020718BFD8
:100EA00046F0010616EB0E7655F1000254F10001F2
:100EB00003D5BDE88901BDE80088BDE88901BDE82A
:100EC0000048B619524141EB0101A3F101037047FB
:100ED00080807F7E7D7C7B7A797877767675747377
:100EE000727171706F6E6E6D6C6C6B6A6A69686836
:100EF000676666656464636362616160605F5F5ECC
:100F00005E5D5D5C5C5B5B5A5A5959585857575641
:100F100056555555545453535252525151505050A6
:100F20004F4F4F4E4E4D4D4D4C4C4C4B4B4B4A4AF8
:100F30004A4949494848484747474746464645453C
:100F40004544444444434343434242424241414175
:100F5000002B9C4630D477002BD01CB54FEA3707C6
:100F600003B44FF010004FF01001BAF1000F06D09B
:100F7000BCF1000FDCBF40F0080040F008014FF06A
:100F800000000FBCBDE810400BF1010BBBF1010FDD
:100F900008BF5FEA170722BF12F1010211F1010138
:100FA0004FF0004143F1000300F0004043EA00002D
:100FB0007047F9D35708D0E746EA064613F1400FC9
:100FC0004FEA16461FDD13F1200FDFBF16430A4616
:100FD000002120335B42BED0C3F1200746EA06461B
:100FE00002FA07F74FEA164646EA0706C3F120075A
:100FF00022FA03F201FA07F721FA03F14FF0000396
:1010000042EA0702A7E746EA020646EA06464FEA30
:10101000164646EA0106BCBF46EA0646360C4FF0C5
:1010200000034FF000024FF0000194E72DE9804CDF
:101030009A46934670B491E8380007C831EA400CEC
:1010400048BF34EA430C03D5FFF7E6FDFFF780FF06
:10105000F0BCBDE8008C2DE9804C9A46934670B4F4
:1010600091E8380007C810F0804F08BF13F0804F98
:1010700003D100F005F8FFF76BFFF0BCBDE8008C72
:1010800020F07F4780EA030023F07F4C07EB0C033E
:10109000A3F57C5300F00040A3F1FE0392F0000F93
:1010A00000F0B38095F0000F00F077802DE9014942
:1010B0004FEA11404FEA144621EA004800FB06FCC3
:1010C00024EA064708FB06F607FB08F800FB07F7CB
:1010D00018EB06484CEB164C4FEA124B18EB07483E
:1010E0004FEA15464CEB174022EA0B4E0BFB06FC71
:1010F00025EA06470EFB06F607FB0EFE0BFB07F77D
:101100001EEB064E4CEB164C4FF000061EEB074E46
:101110004CEB174B18EB0B0840F1000018EB0E0BD3
:1011200058EB000840F100008F1A4FF000013CBF5F
:10113000C943661B14BFB5EB040C00213CBFC94377
:10114000F61B4FEA17444EEA8E0E27EA04454FEA93
:101150001C4704FB07622CEA074C05FB07F70CFB56
:1011600005F604FB0CFC16EB074642EB174216EBA8
:101170000C4642EB1C421BEB060658EB02024141B7
:1011800046EA9E0601D5BDE80189B619524141EBF8
:101190000101A3F10103BDE801894FEA14454FEABB
:1011A000114724EA054621EA074C05FB07F406FB34
:1011B00007F70CFB06F105FB0CFC11EB074144EBB8
:1011C00017444FEA124711EB0C4144EB1C4422EA4E
:1011D000074C05FB07F206FB07F70CFB06F605FBC1
:1011E0000CFC16EB074642EB174216EB0C4642EBA3
:1011F0001C456A1854F1000148BF7047B6195241A6
:1012000041EB0101A3F10103704795F0000F37D0C6
:101210004FEA11424FEA144721EA024624EA074CFA
:1012200002FB07F106FB07F70CFB06F402FB0CFCC4
:1012300014EB074441EB17414FEA154714EB0C44FC
:1012400041EB1C4125EA074C02FB07F506FB07F7BB
:101250000CFB06F602FB0CFC16EB074645EB1745AC
:1012600016EB0C4645EB1C42121951F1000148BF28
:101270007047B619524141EB0101A3F101037047D8
:101280004FEA14454FEA114724EA054621EA074C84
:1012900005FB07F106FB07F70CFB06F24FF0000613
:1012A00005FB0CFC12EB074241EB174112EB0C4221
:1012B00051EB1C4148BF7047921841EB0101A3F16B
:1012C00001037047FEE77047002242F6140306E070
:1012D0000021491C89B29942FBD3521C92B282422E
:1012E000F6D37047002206E00021491C89B2092983
:1012F000FBD3521C92B28242F6D37047084A10B513
:1013000010884FF47A71484300211180054A136810
:1013100011601C183220FFF7D7FF204610BD0000D7
:10132000100000202404004031B500F009F9044603
:1013300000F006F90099001B8842F9D338BD00007F
:101340002DE9F84FDFF8BC91002309F1040A0AF1F6
:10135000040B1C464FF00F080BF1040E01270A681E
:10136000A7403A40BA4272D1DFF89CC14D68A5EB64
:101370000C0665452BD00DDC032D34D005DC35B3D0
:10138000012D19D0022D2FD11BE0112D16D0122DB9
:101390002AD119E0B6F5881F19D006DCB6F5803FD2
:1013A00015D0B6F5801F1FD111E0B6F5001F0ED085
:1013B000B6F5041F18D10AE0CB6815E0CB681B1DF9
:1013C00012E0CB6808330FE0CB680C330CE08B687D
:1013D0002BB1012B4FF0080303D0476104E0042335
:1013E00002E0076100E00023FF2A01D8064601E081
:1013F00000F104064FEA840501D9A5F120053768FC
:1014000008FA05FC27EA0C0703FA05F547EA050781
:1014100037604D68ED006ED53C4DAE6946F0010673
:10142000AE61AD6924F0030605F001050095384D65
:101430007719BE68A5072D0F08FA05FC26EA0C06E9
:10144000DFF8D0C0604503D14FF0000C25E052E03A
:10145000DFF8C4C0604502D14FF0010C1DE0DFF899
:10146000BCC0604502D14FF0020C16E0DFF8B0C0FE
:10147000604502D14FF0030C0FE0DFF8A8C06045D3
:1014800002D14FF0040C08E0DFF89CC0604502D1A7
:101490004FF0050C01E04FF0060C0CFA05FC4CEA8D
:1014A000060CC7F808C04D68D9F80060ED034D463A
:1014B00001D5164300E096432E604D68DAF80060CF
:1014C000AD03554601D5164300E096432E604D68A6
:1014D000DBF80060ED025D4601D5164300E096435F
:1014E0002E604D68DEF80060AD02754601D51643EA
:1014F00000E096432E60641C102CFFF42FAFBDE873
:10150000F88F00000004014000001110001002409C
:101510000000014000080140000C014000100140A3
:101520000014014000180140001C01408068084080
:1015300000D0012070470AB1016170470904FBE740
:10154000014800687047000004000020024801685C
:10155000491C01607047000004000020074810B5D6
:10156000016841F010010160032000F047F80F20EE
:1015700000F006F800F015F8002010BD0020024031
:1015800010B5044600F00CF94FF47A71B0FBF1F09D
:1015900000F019FC00222146501E00F00FF8002038
:1015A00010BD704700F01F020121914040098000EA
:1015B00000F1E020C0F8001170470000F0B40E4BBD
:1015C0001B68C3F30223C3F10704042C00D90424CD
:1015D0001D1D072D01D2002300E0DB1E012606FAA7
:1015E00004F56D1E0D409D409E40761E164045EA56
:1015F0000601F0BC00F01CBF0CED00E0064A00F054
:10160000070110684FF6FF03184040EA0120034924
:1016100008431060704700000CED00E00000FA0580
:101620002DE9F047DFF8688104460E46D8F800003F
:1016300000F00700B0420CD2D8F8001021F00701EA
:101640003143C8F80010D8F8000000F00700B0429D
:1016500073D120784F4F800705D57868A16820F0B6
:10166000F000084378602078C00755D060680122F8
:1016700001280CD0022828D0022393FAA3F1B1FA52
:1016800081F141F02001490904D0396803E04FF4A9
:101690000033F2E7796A93FAA3F3B3FA83F303F022
:1016A0001F039A40114248D0796821F00301014399
:1016B0007960FFF745FF0546606841F288310128EF
:1016C0000CD00228894615D022E04FF00073D4E7F1
:1016D000FFF736FF411B494501D916E08946786876
:1016E000C0F381000128F3D116E0FFF729FF411B69
:1016F00049450AD87868C0F381000228F5D10BE08B
:10170000FFF71EFF411B494502D90320BDE8F087C2
:10171000786810F00C0FF3D1D8F80010404601F0B3
:101720000701B1420BD9016821F007013143016083
:10173000006800F00700B04201D00120E6E7207801
:10174000400705D57868E16820F4E06008437860D8
:101750002078000706D57868216920F4605040EAB7
:10176000C100786000F022F87968F02292FAA2F2C3
:1017700001F0F001B2FA82F2D140074A515CC84050
:10178000064908600F20FFF7FBFE0020BEE70000BF
:101790000020024000100240B22E0008000000208D
:1017A00001480068704700000000002010B519A033
:1017B00085B00FC88DE80F001AA01B4B006804907D
:1017C00059681A4801F00C02042A1DD0082A1BD1BE
:1017D0004FF4701494FAA4F401F47012B4FA84F47F
:1017E000E240C9031DF8022010D559684FF40033B8
:1017F00093FAA3F301F40031B3FA83F3D94004ABB5
:10180000595CB0FBF1F0504305B010BD084850439F
:10181000FAE7000002030405060708090A0B0C0D8D
:101820000E0F1010010200000010024000127A009A
:1018300000093D002DE9F84F04460078FE4EC00730
:101840004FF001057FD070684FF40038C0F381007D
:10185000012807D07068C0F3810002281BD170688E
:10186000C00318D598FAA8F0B0FA80F040F0200034
:10187000400901D0306800E0706A98FAA8F1B1FA26
:1018800081F101F01F0105FA01F108425BD06068A7
:10189000002879D057E06068B0F5803F0BD010B1D8
:1018A000B0F5A02F11D0306820F48030306030685F
:1018B00020F4802002E0306840F4803030606068BE
:1018C00018B3FFF73DFE074609E0306840F480207A
:1018D0003060F0E7FFF734FEC01B642870D898FA38
:1018E000A8F0B0FA80F040F02000400901D0306844
:1018F00000E0706A98FAA8F1B1FA81F101F01F01D5
:1019000005FA01F10842E5D01DE0FFF719FE074690
:1019100004E0FFF715FEC01B6428DFD898FAA8F092
:10192000B0FA80F040F02000400901D0306800E0BB
:10193000706A98FAA8F1B1FA81F101F01F0105FA75
:1019400001F10842E5D12078DFF8F08280074FF0FE
:10195000000A4FF002075AD570684FF0F80B10F0EC
:101960000C0F07D07068C0F3810002281CD170688A
:10197000C00319D497FAA7F0B0FA80F040F0200025
:10198000400902D0306801E08AE0706A97FAA7F156
:10199000B1FA81F101F01F0105FA01F108422BD0E3
:1019A000206901287CD127E0206988B395FAA5F049
:1019B000B0FA80F048F82050FFF7C2FD814606E0FB
:1019C0004DE1FFF7BDFDA0EB0900022886D897FA8C
:1019D000A7F0B0FA80F040F02000400901D0306854
:1019E00000E0706A97FAA7F1B1FA81F101F01F01E6
:1019F00005FA01F10842E4D030689BFAABF220F01E
:101A0000F8016069B2FA82F290400143316025E04A
:101A1000FFE795FAA5F1B1FA81F148F821A0FFF7A7
:101A20008FFD814605E0FFF78BFDA0EB0900022842
:101A3000CCD897FAA7F0B0FA80F040F02000400927
:101A400001D0306800E0706A97FAA7F1B1FA81F12D
:101A500001F01F0105FA01F10842E4D120780007E6
:101A60006DD5A069B8B395FAA5F0B0FA80F008EB8F
:101A70008000C0F88054FFF763FD814605E0FFF762
:101A80005FFDA0EB09000228A0D897FAA7F0B0FAF2
:101A900080F040F06000B5EB501F02D130680CE0E0
:101AA00063E197FAA7F0B0FA80F040F06000B7EB7E
:101AB000501F01D1306A00E0706A97FAA7F1B1FABD
:101AC00081F101F01F0105FA01F21042D7D0012087
:101AD000FFF72AFC33E0FFE795FAA5F1B1FA81F1AF
:101AE00008EB8101C1F880A4FFF72AFD814605E0DB
:101AF000FFF726FDA0EB0900022899D897FAA7F076
:101B0000B0FA80F040F06000B5EB501F01D13068B2
:101B10000BE097FAA7F0B0FA80F040F06000B7EB66
:101B2000501F01D1306A00E0706A97FAA7F1B1FA4C
:101B300081F101F01F0105FA01F21042D8D120789D
:101B4000400763D5F06940F08050F061F069DFF83C
:101B5000F0B000F080500090DBF8001041F480718C
:101B6000CBF80010FFF7ECFC814605E0FFF7E8FC3E
:101B7000A0EB0900642872D8DBF80000C005F5D599
:101B8000E06801280AD008B1052813D0306A20F097
:101B900001003062306A20F0040002E0306A40F058
:101BA00001003062E06841F2883B80B3FFF7C8FC77
:101BB00081460AE0306A40F004003062EEE7FFF749
:101BC000BFFCA0EB0901594549D897FAA7F0B0FA34
:101BD00080F040F04000B5EB501F01D130680BE0C1
:101BE00097FAA7F0B0FA80F040F04000B7EB501F32
:101BF00001D1306A00E0706A97FAA7F1B1FA81F179
:101C000001F01F0205FA02F10842D8D033E0FFE7E5
:101C1000FFF796FC814605E0FFF792FCA0EB090177
:101C200059451CD897FAA7F0B0FA80F040F0400070
:101C3000B5EB501F08D105E0001002400000424201
:101C40000070004030680CE097FAA7F0B0FA80F01E
:101C500040F04000B7EB501F02D1306A01E08AE04B
:101C6000706A97FAA7F1B1FA81F101F01F0205FA43
:101C700002F10842D0D1E06998B37168C1F38101E3
:101C8000022972D002284FF080714FF0007B50463D
:101C90000AD091FAA1F1B1FA81F148F82100FFF7D9
:101CA0004FFC04465F4669E08A4691FAA1F1B1FA19
:101CB00081F1C14648F82100FFF742FCA8460746DB
:101CC0005D4604E0FFF73CFCC01B022853D895FAA0
:101CD000A5F0B0FA80F040F02000400902D0306852
:101CE00001E060E0706A95FAA5F1B1FA81F101F0C6
:101CF0001F0208FA02F10842E4D1206AB0F5803FE1
:101D000005D17068A16820F4003008437060D4E900
:101D100008010843716821F47411084370609AFA4D
:101D2000AAF0B0FA80F0474649F82080FFF708FC97
:101D3000044604E0FFF704FC001B02281BD895FAB8
:101D4000A5F0B0FA80F040F02000400901D03068E2
:101D500000E0706A95FAA5F1B1FA81F101F01F0176
:101D600007FA01F10842E5D01DE01EE0FFF7E8FBAD
:101D7000001B022802D90320BDE8F88F97FAA7F0CC
:101D8000B0FA80F040F02000400901D0306800E057
:101D9000706A97FAA7F1B1FA81F101F01F0105FA13
:101DA00001F10842E2D10020E6E70120E4E74FF02C
:101DB000E0210428086903D020F00400086170477E
:101DC00040F00400FAE710B5401EB0F1807F01D367
:101DD000012010BD4FF0E02460610F21601700F07A
:101DE00027FB0020A06107202061002010BD704764
:101DF000704710B5040003D094F8390010B107E023
:101E0000012010BD002084F83800204600F00CF8B6
:101E1000022084F83900211D206800F0B1FB012068
:101E200084F83900002010BD08B500680F498842C9
:101E30001AD10F48816941F400618161816901F41F
:101E400000610091C16941F00201C161C0690322D2
:101E500000F00200009001211D20FFF7AFFBBDE85C
:101E600008401D20FFF79EBB08BD00000004004095
:101E7000001002400168CA6842F00102CA600068AE
:101E8000016841F001010160002070470168CA68E3
:101E900022F00102CA600068016A41F21112114287
:101EA00007D1016A9210114203D1016821F00101AA
:101EB000016000207047704770B5044600680169F2
:101EC0004FF00005C943890715D4C168C943890784
:101ED00011D4E91E01610120207620688069800705
:101EE000204602D0FFF7E7FF04E000F098F8204614
:101EF00000F096F8257620680169C943490717D490
:101F0000C168C943490713D46FF00401016102207D
:101F100020762068806910F4407F204602D0FFF7C9
:101F2000CAFF04E000F07BF8204600F079F825763F
:101F300020680169C943090716D4C168C943090764
:101F400012D46FF008010161042020762068C06976
:101F50008007204602D0FFF7AEFF04E000F05FF8F4
:101F6000204600F05DF8257620680169C943C9065E
:101F700017D4C168C943C90613D46FF010010161B9
:101F8000082020762068C06910F4407F204602D0E7
:101F9000FFF791FF04E000F042F8204600F040F81F
:101FA000257620680169C943C90708D1C168C943BA
:101FB000C90704D1891E0161204600F032F820686B
:101FC0000169C943090609D4C168C943090605D492
:101FD0006FF0800101612046FFF709FF2068016969
:101FE000C943490609D4C168C943490605D46FF0FD
:101FF00040010161204600F015F820680169C943DD
:1020000089060BD4C168C943890607D46FF0200143
:1020100001612046BDE87040FFF7EABE70BD704721
:10202000704770477047704790F83900704738B56F
:10203000044600680168C268C1F3000102F48072BE
:1020400021B11AB1E16B41F00101E1630168C1F313
:102050004002416901F0010122B119B1E26B42F085
:102060000402E2630268C2F3800222B119B1E26B9A
:1020700042F00202E2630268C2F3C00222B119B167
:10208000E16B41F00801E1630168C068C1F34011F0
:1020900000F0200019B110B1204600F0B3FA20681A
:1020A0000168C068C1F3C01100F0800019B110B11F
:1020B000204600F0FAFA21680868CA68C0F3801068
:1020C00002F04002012568B162B1CA68204622F0E0
:1020D0004002CA6094F83910322910D080F8395083
:1020E00000F072F8E06B002808D0206801684068B2
:1020F000009084F839502046FFF795FF38BD222123
:1021000080F83910ECE790F83930012B01D0122B10
:102110002BD131B32AB390F83830012B25D00123CD
:1021200080F8383081628285C2850021C16390F8D1
:102130003920122A17D0222280F8392080F838104E
:102140000168CA6842F48072CA6001684A6942F054
:1021500001024A610068C16841F02001C1600020AD
:102160007047012070473222E6E7022070470000E6
:1021700030B50068114988420CD1114A50880104D9
:1021800008D41146440409784FF0000306D50A2903
:1021900001D0538030BD40F400400DE00D2909D03E
:1021A000C0F30D04074D401C80B229555080C7284C
:1021B000EFD830BD40F48040508030BD0038014041
:1021C0000C000020140000207047FEE770B50024CA
:1021D0001B4D2646012220212846FFF7ACF914208A
:1021E000FFF780F8002220212846FFF7A4F94021BC
:1021F0002846FFF79BF90028F9D01248FFF73AFE6E
:10220000641C40212846FFF791F90128F9D00D48B8
:10221000FFF752FE0B48FFF739FEFFF76FF800F0AB
:1022200003FD094900F03EFC314600F0D3FB0646B1
:10223000022CCFDBBDE870404FF0FF3100F0FBBD5A
:10224000000C01401C01002000004E4270B5044605
:10225000304DC00701D0012200E0002201212846B4
:10226000FFF769F9A00701D5012200E00022022151
:102270002846FFF760F9600701D5012200E000223F
:1022800004212846FFF757F9200701D5012200E075
:10229000002208212846FFF74EF9E00601D5012269
:1022A00000E0002210212846FFF745F9A00601D5DD
:1022B000012200E0002220212846FFF73CF96006B9
:1022C00001D5012200E0002240212846FFF733F922
:1022D000200601D5012200E0002280212846FFF7D8
:1022E0002AF94FF4AA74204600F081FA01229602DE
:1022F00031462846FFF71FF9204600F078FA002201
:1023000031462846FFF717F92046BDE8704000F037
:102310006EBA000000100140254810B5816986B0F2
:1023200041F0100181618069224C00F0100004909E
:1023300040F2FF7000900120019002900320039072
:1023400069462046FEF7FCFF002261152046FFF794
:10235000F2F84FF4AA7000F04AFA0022A1152046C4
:10236000FFF7E9F8382000F02FF8042000F036FAE3
:10237000082000F029F8042000F030FA012000F0D5
:1023800023F8042000F02AFA062000F01DF80420AB
:1023900000F024FA0C2000F017F8042000F01EFAD8
:1023A000012000F011F8042000F018FA06B010BD6A
:1023B000001002400010014019B1C030C0B200F05E
:1023C00003B88030FAE7000010B5044600224FF44D
:1023D00080710648FFF7AFF82046FFF737FFBDE8EA
:1023E00010404FF4AA7000F002BA00000010014043
:1023F00010B50446012211020548FFF79CF820465B
:10240000FFF724FFBDE810404FF4AA7000F0EFB9C9
:102410000010014010B51446FFF7CEFF02E0FFF7B1
:10242000E7FF641C20780028F9D110BDFEE7704753
:102430000907090E002806DA00F00F0000F1E0207D
:1024400080F8141D704700F1E02080F800147047F8
:102450007047000030B5114885B0816941F008012E
:1024600081618069032400F008000490202000901E
:102470000120CDE902040A4D019069462846FEF785
:102480005FFF00214020CDE90214CDE9000169463B
:102490002846FEF755FF05B030BD00000010024091
:1024A000000C0140704730B58FB00121009102252A
:1024B000090400240795CDE90114CDE90810684608
:1024C000FFF7B8F900B1FEE70F20CDE90A054FF498
:1024D0008060CDE90C4002210AA80E94FFF7A0F815
:1024E000002800D0FEE70FB030BDFFF72FB8000086
:1024F0000D48016841F00101016041680B4A11403B
:10250000416001680A4A11400160016821F480219C
:102510000160416821F4FE0141604FF41F018160B8
:102520000449C00308607047001002400000FFF833
:10253000FFFFF6FE08ED00E003480188491C01801A
:102540000248FFF7B9BC0000100000201C01002069
:102550000A4A10B5084BC2E900310021C2E9021055
:1025600010461161FFF745FC0448FFF783FCBDE806
:1025700010400248FFF758BC000400401C01002036
:10258000F0B502681A4D1B4E1B4FDFF870C01C4B94
:102590004FF0804EA84209D0984207D0704505D030
:1025A000B04203D0B84201D0604503D122F070049C
:1025B0004A682243A84209D0984207D0704505D006
:1025C000B04203D0B84201D0604503D122F4407438
:1025D000CA68224302608A68C2620A688262A842AC
:1025E00001D0984201D10969016301214161F0BD27
:1025F000002C01400004004000080040000C004096
:102600000034014010B590F83910222903D0322946
:1026100001D0022010BD8168B1F5805F11D0016941
:10262000002901681FD0496801F07F03816A4A1CB4
:1026300082620B70C18D491E0904090CC18518D036
:102640002FE00269816A002A0268526805D0D2B27E
:102650000A80816A491C8162ECE7C2F308020A80A1
:10266000816A891CF7E74A68816A4B1C83620A7099
:10267000E0E70168CA6822F02002CA6090F83910C9
:10268000322910D00168CA6822F48072CA600168D9
:102690004A6922F001024A61012180F83910FFF7EE
:1026A00067FD002010BD1221F7E790F839101229BC
:1026B00003D0322901D0022070478168B1F5805FD4
:1026C000016A0BD04A1C0262026809785160C18C11
:1026D000491E0904090CC1840ED017E0098802685C
:1026E000C1F30801516001690029016A02D0491C47
:1026F0000162ECE7891CFBE70168CA6822F08002EE
:10270000CA600068C16841F04001C16000207047A4
:1027100010B50848FFF78BFC0648FFF785FC012839
:10272000FAD1012204490348FFF7EDFC0028F8D153
:1027300010BD0000DC0000200C000020FEE7490076
:1027400050EAC12018BF04204A0D18BF40F0010014
:1027500040F2FF72B2EB515F08BF40F00200012867
:1027600008BF0520704730380A2801D20120704781
:10277000002070477047000010B504460420FFF7A2
:1027800016FB0148046010BD0800002070B5054626
:1027900000244FF47A7603E0304600F005F8641C1C
:1027A000AC42F9D370BD000070B54FF0E0250021B8
:1027B0006C69094AAB6912685043AA699A42FCD015
:1027C00002D2A3EB020302E0A4EB02063344194455
:1027D00013468142F1D370BD0800002000B503000C
:1027E00004D00A2000F003F85B1EFAD100BD0A22D3
:1027F000014600E0491E0029FCD1521EF8D1704765
:102800008AB0324C14216846FDF7CDFD00200590BA
:10281000069007900890FEF7A1FE4FF4E010FFF736
:1028200042FE4820FFF7A8FFFFF776FD6420FFF780
:10283000ADFFFFF70FFE472140F2E730FFF788FEBC
:10284000234FDFF890804FF080452646FFF7BEFC0F
:10285000294600F047FA0446B84200DB1E4C2046E9
:1028600000F08CF802460B461CA105A8FDF7DCFC25
:102870003146204600F036FA404501DB19A10EE052
:10288000A84201DB1BA10AE01E49884201D31EA118
:1028900005E0B0F1404F01D31FA100E022A168463E
:1028A000FDF75DFD002124A20846FFF7B3FD05AA50
:1028B00000210A20FFF7AEFD6A4601210020FFF744
:1028C000A9FDC820FFF762FFBFE7000066E6F642F9
:1028D00000001644000020410000C843252E326647
:1028E00020636D00517569636B6C79206177617944
:1028F00020000000536C6F776C792061776179203C
:1029000020000000000020C1517569636B6C7920C4
:10291000636C6F7365000000536C6F776C79206394
:102920006C6F73652000000053746174696F6E6191
:10293000727920202000000044697374616E636521
:102940003A00000010B500290AD00878002807D006
:1029500005487844FEF7AEF8002801D0002010BDED
:102960000248784410BD0000260600001E06000044
:102970000808A0F500114FEA3101704743004FEA03
:10298000D30C4FEA3C0C43401FBF40070CF1605191
:1029900013F0FE4F70471CF0006F03D100200CF0C5
:1029A000004170470CF0004343EA507010B540EA14
:1029B000CC0000F04CF900BF000000924FEA00018B
:1029C000FFF7D6BF4FF000414FF00000A1F5002106
:1029D0007047000090EA010F48BF81F0004100F10C
:1029E0008881421A3CBF801A89184FEAD0524FF0B2
:1029F0007F4C1CEA410FA2EBD15318BF9CEA026F37
:102A000000F03B804FF0004C4CEA00204CEA0121E2
:102A100021FA03FC10EB0C0C1ED202F1FF325FEA2C
:102A20001C2040EBC25038BF70471CF07F0F4FEAAC
:102A3000400C18BFBCF17F4F38BF7047C3F1200373
:102A4000994008BF20F00100BCF17F4F38BF7047AC
:102A5000A0F1C04000F041B94FEA3C00000A40EB51
:102A6000C25028BF1CF0FF0F4FEA400CE6D018BF41
:102A7000BCF17F4F38BF7047EAE79CEA026F05D090
:102A800010EA5C0F08BF00F00040704710B500F07E
:102A9000DEF800BF64FBBE3E014800F09AB900BFFB
:102AA0000000C07F4FF47F0C1CEAD0121EBF1CEA4E
:102AB000D11392EA0C0F93EA0C0F00F0858090EA94
:102AC000010F48BF42F4807240F4000C41F4000052
:102AD0002CF07F4120F07F4000B58142A2EB030241
:102AE0000FF2081CACEB504EC0F100009EF800E065
:102AF0004FEA4E0E00FB0EFC38BF49004FEA2C1C7B
:102B000002F5FA020CFB0EF34FEACE1E4FEA112C2F
:102B10004FEAC1210EEB635E42EB22420EFB0CFC3E
:102B20004FEA1C5300FB03114FEA112C4FEA01310D
:102B30000EFB0CFC4FEADC4C00FB0C11C14228BF21
:102B400009184CEB03335DF804EB10EB410143EB48
:102B5000C250B2F57C0F38BF704729D512F0F00F84
:102B60001CBF00F1C04000F000407047008182832C
:102B70008485868788898B8C8D8E8F91929395968C
:102B800097999A9C9D9FA0A2A3A5A7A8AAACAEB016
:102B9000B2B3B5B7B9BCBEC0C2C5C7C9CCCED1D41B
:102BA000D7D9DCDFE2E6E9ECF0F3F7FAFE0000004B
:102BB0004FEA400C0CF1807CBCF17E4F28BF70477F
:102BC000B0F1C04000F089B890EA010F0CEAD113CF
:102BD00048BF42F48072624538BF634507D213F4A0
:102BE0007F0F16D080EA010000F00040704710B55A
:102BF00000F02DF8097EFC3E00F005B880EA0100E7
:102C000000F00040704780EA010000F0004000F052
:102C100064B812F47F0F04BF0248704780EA0100D5
:102C200000F05BB80000C07FB0FA80F310FA03F246
:102C3000C3F19D030AD0D90501EB1220530638BF1A
:102C4000704700F1010008BF20F0010070470EF14D
:102C5000020E2EF0030E5EF8044B244204D44FEA19
:102C60004102B2F17F4F11D84FEA4003B3F17F4FD9
:102C70000CD80ED14FEAD07CB2F17F4F0CEB4C0C4C
:102C80000CF1020C08BF4CEBD17C04E04FF0080CB7
:102C900001E04FEAD17C0CEB4C0324FA03F404F07E
:102CA0000704B4F1040C06D20EEB840CBDE810400E
:102CB0004CF0010C6047DFE80CF0070802024FF00F
:102CC0000040A0F5800010BD0846420018BFD2F1B8
:102CD000807288BF00F0004010BDFF2141EAD05053
:102CE000C005704790EA010F48BF81F000413FF5F1
:102CF00078AE421A04D882F00042A0EB02001144E0
:102D00004FEAD0524FF07F4C1CEA410FA2EBD15357
:102D100018BF9CEA026F4AD04FF0004C4CEA0020EA
:102D20004CEA012121FA03FCB0EB0C0C0FD412F099
:102D3000FE0F36D05FEA4C001DD5001240EBC250AA
:102D400038BF70471CF03F0F18BF70470BE0A2F16F
:102D500001025FEA1C2040EBC25038BF70471CF0F4
:102D60007F0F18BF7047C3F12003994014BF401E66
:102D700020F00100704780084FEA122308BF704717
:102D8000B0FA80FCA2EB0C02CCF1280C60FA0CF03B
:102D900093EA122F04BF00EBC25070474FEAC37092
:102DA0007047130A5FEADC1008BF7047F6E79CEA39
:102DB000026F04D010EA5C0F08BF0020704710B506
:102DC000FFF745FF40DFF63E81F000407047FDF71A
:102DD000EEBB0CF00F03092B08BF082000F0518058
:102DE0000A2B0BD0082B18BF704708BF1CF0400FF0
:102DF0000AD04FF000004FF0000170471CF0400F68
:102E000018BF4FF0004070471CF0100F08D020F0A2
:102E1000704300F07F4242EAD3014FEA43707047AB
:102E200000F0604021F07F4242EA000201F07F4062
:102E300040EA727070474FF0FF0212EAD0521CBF96
:102E400092F0FF038B42C2BFD14200EBC1507047EA
:102E5000002A0AD0002B0BD0002900F00040A4BFAC
:102E600040F0FE4040F40000704700F00040704722
:102E700043024FF00B0C18BF4CF0806C7FF40CAE8B
:102E800070471CF4801F11D01CF4E02F03D06FEAB0
:102E9000CC31490070474FF04050EFF3008222F0F0
:102EA000704242EA000282F3008870474FF000004F
:102EB0007047000000000000000001020304060744
:102EC0000809000002400000000000A0000000000F
:102ED00005400000000000C8000000000C40000099
:102EE0000000409C00000000194000000020BCBE13
:102EF0000000000034400000BFC91B8E0000000429
:102F0000B5400000504BCFD06607E2CF0100000073
:102F10006C4100003E8251AADFEEA73401000000A0
:102F2000D9420000DCB5A0E23A301F97FFFFFFFF57
:102F3000B4450000FD25A0C8E9A3C14FFFFFFFFF76
:102F4000FF3F00000000008000000000FF3F000085
:102F50000000008000000000942F00080000002006
:102F6000140000006C010008A82F000814000020C5
:102F7000A4070000880100081C00000043000000B6
:102F8000F8FFFFFF0C0000000E0000000F00000023
:102F90002E00000000A24A04000000000000000013
:082FA000000000000000000029
:0400000508000131BD
:00000001FF
